:04000000FEEF17F008
:1009B900010001C58AC5881200C58605EC05F0123B
:1009C90000C58205EC05F01200C58005EC05F012A2
:1009D90000C58405EC05F01200E1EC04F0DEEC043E
:1009E900F0C9501200316E31C0C9FF05EC05F01293
:1009F9000093501F0B936E93501E09936EF19E1234
:100A0900009EA60AEF05F00CEF05F005EF05F09E34
:100A190096120092EC07F018EC05F0936AB5EC0514
:100A2900F0FDEC04F0120094869488280EC66E310D
:100A39000EC86EC79CC78E9E96A19612003A6E008C
:100A49000E316E395078EC05F0010E316E3A50785E
:100A5900EC05F01200336EE9EC04F0D00EF7EC046B
:100A6900F03350F7EC04F03250F7EC04F0EDEC04FD
:100A7900F01200EF0E336E2F0E346E800E356E6C51
:100A8900EC06F0C60E336E346A850E356E6CEC06D4
:100A9900F01200326EE9EC04F0A00EF7EC04F0322B
:100AA90050F7EC04F0E5EC04F0A10EF7EC04F0F1DA
:100AB900EC04F0336EEDEC04F033501200326EE9C1
:100AC900EC04F0D00EF7EC04F03250F7EC04F0E54A
:100AD900EC04F0D10EF7EC04F0F1EC04F0336EED18
:100AE900EC04F033501200326E31B07EEF05F08124
:100AF900EF05F0828282EF05F0829232C083FF8295
:100B0900848294958E828082928284829483BE901C
:100B1900EF05F092EF05F089EF05F08290959E12AE
:100B290000356EE9EC04F0A00EF7EC04F03550F74F
:100B3900EC04F03250F7EC04F0EDEC04F00B0E3459
:100B49006EB80E336E3306D8A03406332806E13466
:100B590028D8A4B2EF05F0B4EF05F0A7EF05F0121D
:100B690000000E63EC05F0346E34508009326E00DB
:100B79000E2FEC05F0020E63EC05F0346E34504193
:100B890009326E020E2FEC05F0930E326E070E2F0E
:100B9900EC05F0000E63EC05F0346E34507F0B3237
:100BA9006E000E2FEC05F01200EA0E336E2F0E3494
:100BB9006EC00E356E6CEC06F0280E336E346AC5C5
:100BC9000E356E6CEC06F009ACEDEF05F0EFEF05B4
:100BD900F008EF06F009BAF4EF05F0F6EF05F0FCBE
:100BE900EF05F0F40E366E2F0E376E00EF06F0F7B4
:100BF9000E366E2F0E376E36C033F037C034F0CD57
:100C09000E356E6CEC06F01200720EF66E0C0EF7D5
:100C19006E000EF86E00EE60F010EE66F00900F559
:100C2900CFEEFFE550E150FAE1B90EF66E090EF785
:100C39006E000EF86E0900F5CF5CF00900F5CF5D86
:100C4900F00900F5CF5EF000EEC6F00B0EEE6AE893
:100C590006FDE100EE01F0300EEE6AE806FDE10066
:100C69000EF86E0001E1EF0CF0534554204556454E
:100C79004E540000000000000056494557204556D3
:100C8900454E540000000000005345542054494D7E
:100C99004500000000000000005345542044415421
:100CA9004500000000000000005345542F564945F7
:100CB90057204556454E5400005345542054494D3C
:100CC900452F44415445000000414D00504D00005E
:100CD9000E316E355078EC05F089EF06F0010E31D2
:100CE9006E33C0F6FF34C0F7FFF86A050EF76403E8
:100CF900D00800F55005D0F6CFE9FFF7CFEAFFEFAE
:100D09005078EC05F0334A342A33C0F6FF34C0F783
:100D1900FFF86A050EF76403D00800F55005D0F610
:100D2900CFE9FFF7CFEAFFEF500009D8A49FEF06FC
:100D3900F0A1EF06F073EF06F01200060E63EC0562
:100D4900F0056E050E63EC05F0066E040E63EC0506
:100D5900F0076E030E63EC05F0086E320E0001C653
:100D69006F300EC76F05380F0B0F0B300FC86F05AB
:100D7900500F0B300FC96F2D0ECA6F06380F0B0FAE
:100D89000B300FCB6F06500F0B300FCC6F2D0ECDE4
:100D99006F07380F0B0F0B300FCE6F07500F0B304B
:100DA9000FCF6FD06B12000EC03AF00FC03BF005A9
:100DB900EF07F0000E3D6E000E3C6E3A50060DF343
:100DC900503C24FA0F4EEC05F0396E39C032F03A36
:100DD90050060DF3503C2495EC05F03C4A3D2A3D64
:100DE900BE00EF07F03D5009E1060E3C5CD8A000BB
:100DF900EF07F002EF07F0E2EF06F03A06D8A03B62
:100E0900063A50365C3750800A386E3B50800A38B3
:100E190058D8A012EF07F014EF07F0DEEF06F01232
:100E290000316E3150D8A41CEF07F01EEF07F022F5
:100E3900EF07F001EC09F052EF07F03104D8A428CC
:100E4900EF07F02AEF07F051EF07F001EC09F03254
:100E59006E3250D8B433EF07F035EF07F045EF079E
:100E6900F05C505D10D8B43CEF07F03EEF07F04559
:100E7900EF07F0000E5D6E000E5C6E325052EF0708
:100E8900F03250D8A44BEF07F04DEF07F051EF07C0
:100E9900F0000E5D6E010E5C6E000E1200020E6314
:100EA900EC05F0096E010E63EC05F00A6E000E63A5
:100EB900EC05F00B6E09AC64EF07F066EF07F07113
:100EC900EF07F009380F0B010B300F286E09500F8F
:100ED9000B300F296E7AEF07F009380F0B030B302F
:100EE9000F286E09500F0B300F296E3A0E2A6E0A21
:100EF900380F0B0F0B300F2B6E0A500F0B300F2CC6
:100F09006E3A0E2D6E0B380F0B0F0B300F2E6E0B2A
:100F1900500F0B300F2F6E306A1200956A9450F8FB
:100F29000B946E8290C30E336ECD0EE82EFED7332E
:100F39002EFCD70000000E316E330E78EC05F01B45
:100F49000E336E9E0EE82EFED7332EFCD700D0004E
:100F59000E316E330E78EC05F0A60EE82EFED700A2
:100F6900D0000E316E330E78EC05F000D000D000C1
:100F790000000E316E020E78EC05F0A60EE82EFE8A
:100F8900D700D0000E316E380E78EC05F0A60EE8C9
:100F99002EFED700D0000E316E010E78EC05F0045C
:100FA9000E336E3E0EE82EFED7332EFCD7000E31DF
:100FB9006E0C0E78EC05F0A60EE82EFED700D012C6
:100FC90000366A32BEEDEF07F0EBEF07F0F3EF07FB
:100FD900F0316C321ED8B0322A010E366E34BEFAA8
:100FE900EF07F0F8EF07F0FEEF07F0336C341ED887
:100FF900B0342A33503410D8B405EF08F007EF089D
:10100900F02BEF08F0010E356E0FEF08F0D8903392
:10101900363436352A34AE14EF08F016EF08F00BE3
:10102900EF08F03350315C34503258D8A01FEF0824
:10103900F021EF08F025EF08F03350315E345032DB
:101049005AD89034323332352E16EF08F03650D84C
:10105900B431EF08F033EF08F037EF08F0316C32B4
:101069001ED8B0322A31C031F032C032F012003607
:101079006A34BE44EF08F042EF08F04AEF08F03353
:101089006C341ED8B0342A010E366E32BE51EF08C8
:10109900F04FEF08F057EF08F0316C321ED8B0323C
:1010A9002A010E361A000E386E000E376E33503490
:1010B90010D8B462EF08F064EF08F08CEF08F00183
:1010C9000E356E6CEF08F0D89033363436352A3445
:1010D900AE71EF08F073EF08F068EF08F0D89037B9
:1010E9003638363350315C34503258D8A07FEF0847
:1010F900F081EF08F086EF08F03350315E3450325A
:101109005A3780D89034323332352E73EF08F0369F
:1011190050D8B492EF08F094EF08F098EF08F03740
:101129006C381ED8B0382A37C031F038C032F012C6
:1011390000436E43C031F0326A000E346E0A0E333A
:101149006E3CEC08F03150300F3D6E43C031F03247
:101159006A000E346E0A0E336EE5EC07F03150303A
:101169000F3E6E39C031F0326A000E346E0A0E330A
:101179006E3CEC08F03150300F3F6E39C031F0321F
:101189006A000E346E0A0E336EE5EC07F03150300A
:101199000F406E1450030D3A50F324D96EDA6ADF0A
:1011A90050416E1450030D3A50F324D96EDA6A0196
:1011B9000ED926DF50426E000E456E000E446E4475
:1011C900503D0FD96EDA6ADF50326E3B50060DF38F
:1011D90050442495EC05F0444A452A45BEFEEF08E3
:1011E900F0455009E1060E445CD8A0FEEF08F00076
:1011F900EF09F0E4EF08F01200819A818C818E8169
:10120900B209EF09F00BEF09F00EEF09F0010E84B6
:10121900EF09F081B413EF09F015EF09F018EF09A0
:10122900F0040E84EF09F081B61DEF09F01FEF09F4
:10123900F022EF09F0070E84EF09F081B827EF09D2
:10124900F029EF09F02CEF09F00A0E84EF09F0817B
:101259008A819C818E81B234EF09F036EF09F03929
:10126900EF09F0020E84EF09F081B43EEF09F04076
:10127900EF09F043EF09F0050E84EF09F081B64854
:10128900EF09F04AEF09F04DEF09F0080E84EF0974
:10129900F081B852EF09F054EF09F057EF09F00B5C
:1012A9000E84EF09F0818A818C819E819E81B260D2
:1012B900EF09F062EF09F065EF09F0030E84EF0919
:1012C900F081B46AEF09F06CEF09F06FEF09F006ED
:1012D9000E84EF09F081B674EF09F076EF09F07921
:1012E900EF09F0090E84EF09F081B87EEF09F0806B
:1012F900EF09F083EF09F00C0E84EF09F0000E12EC
:10130900003B6E3B04D8A48CEF09F08EEF09F097EF
:10131900EF09F01F04D8A494EF09F096EF09F097AC
:10132900EF09F01F6A020E3B18D8A49EEF09F0A03E
:10133900EF09F0AAEF09F01F50D8A4A6EF09F0A809
:10134900EF09F0AAEF09F0010E1F6E040E3B18D841
:10135900A4B1EF09F0B3EF09F0C8EF09F01F50D8B5
:10136900B4B9EF09F0BBEF09F0BFEF09F0030E5E66
:101379006EC1EF09F0020E5E6E000E316E010E783D
:10138900EC05F01AEF0AF0050E3B18D8A4CFEF09C7
:10139900F0D1EF09F0DAEF09F0010E5E6E000E31BF
:1013A9006E010E78EC05F01AEF0AF01F50D8A4E090
:1013B900EF09F0E2EF09F0F8EF09F0800E396E2D30
:1013C9000E23EC05F0810E396E3E0E23EC05F0C0BC
:1013D9000E396E200E23EC05F0C10E396E200E2356
:1013E900EC05F00CEF0AF0800E396E200E23EC05A7
:1013F900F0810E396E200E23EC05F0C00E396E2DEA
:101409000E23EC05F0C10E396E3E0E23EC05F0A05B
:101419000E336E346A820E356E6CEC06F0B00E3304
:101429006E346AC20E356E6CEC06F012003B6E3BF0
:1014390004D8A422EF0AF024EF0AF02DEF0AF017DE
:1014490004D8A42AEF0AF02CEF0AF02DEF0AF017BE
:101459006A020E3B18D8A434EF0AF036EF0AF040BE
:10146900EF0AF01750D8A43CEF0AF03EEF0AF0401B
:10147900EF0AF0010E176E040E3B18D8A447EF0AC5
:10148900F049EF0AF05EEF0AF0000E316E010E78B6
:10149900EC05F01750D8B454EF0AF056EF0AF05A99
:1014A900EF0AF0050E5E6EB0EF0AF0040E5E6EB044
:1014B900EF0AF0050E3B18D8A465EF0AF067EF0AAA
:1014C900F070EF0AF0000E316E010E78EC05F001B4
:1014D9000E5E6EB0EF0AF01750D8A476EF0AF078D6
:1014E900EF0AF08EEF0AF0800E396E2D0E23EC050F
:1014F900F0810E396E3E0E23EC05F0C00E396E20D8
:101509000E23EC05F0C10E396E200E23EC05F0A276
:10151900EF0AF0800E396E200E23EC05F0810E39AA
:101529006E200E23EC05F0C00E396E2D0E23EC054E
:10153900F0C10E396E3E0E23EC05F0800E336E3489
:101549006A820E356E6CEC06F0900E336E346AC208
:101559000E356E6CEC06F012003B6E3B04D8A4B855
:10156900EF0AF0BAEF0AF0C3EF0AF01204D8A4C0E8
:10157900EF0AF0C2EF0AF0C3EF0AF0126A020E3B5B
:1015890018D8A4CAEF0AF0CCEF0AF0D6EF0AF01285
:1015990050D8A4D2EF0AF0D4EF0AF0D6EF0AF0013E
:1015A9000E126E040E3B18D8A4DDEF0AF0DFEF0A25
:1015B900F0F4EF0AF0000E316E010E78EC05F0122E
:1015C90050D8B4EAEF0AF0ECEF0AF0F0EF0AF007AE
:1015D9000E5E6E46EF0BF0060E5E6E46EF0BF005E3
:1015E9000E3B18D8A4FBEF0AF0FDEF0AF006EF0B4B
:1015F900F0000E316E010E78EC05F0010E5E6E46BC
:10160900EF0BF01250D8A40CEF0BF00EEF0BF024F7
:10161900EF0BF0800E396E2D0E23EC05F0810E399B
:101629006E3E0E23EC05F0C00E396E200E23EC053C
:10163900F0C10E396E200E23EC05F038EF0BF08067
:101649000E396E200E23EC05F0810E396E200E2323
:10165900EC05F0C00E396E2D0E23EC05F0C10E39E4
:101669006E3E0E23EC05F0600E336E346A820E3541
:101679006E6CEC06F0700E336E346AC20E356E6C09
:10168900EC06F01200406E0E500F10D8A44FEF0B6D
:10169900F051EF0BF073EF0BF0AE0E336E2F0E34EB
:1016A9006E830E356E6CEC06F0DB0E336E2F0E3446
:1016B9006EC40E356E6CEC06F0040E4018D8A468A2
:1016C900EF0BF06AEF0BF00FEF0CF0000E316E012B
:1016D9000E78EC05F0010E5E6E0FEF0CF0020E4075
:1016E90018D8A47AEF0BF07CEF0BF097EF0BF0FF13
:1016F9000E0E243B6EFF0E0F203C6E10503D6E3EC9
:101709006A3B503D5C3E50800A3F6E3C50800A3F28
:1017190058D8B092EF0BF094EF0BF097EF0BF01055
:101729002AA8EF0BF04004D8A49DEF0BF09FEF0B14
:10173900F0A8EF0BF01050D8B4A5EF0BF0A7EF0B02
:10174900F0A8EF0BF01006040E4018D8A4AFEF0B69
:10175900F0B1EF0BF0B9EF0BF0106A000E316E012A
:101769000E78EC05F06FEF0BF0910E336E2F0E34FF
:101779006E800E356E6CEC06F0C00E396E200E23AD
:10178900EC05F0C10E396E200E23EC05F0C20E39BE
:101799006E1050060DF3504EEC05F023EC05F0C326
:1017A9000E396E1050060DF3284EEC05F023EC05AA
:1017B900F0C40E396E3A0E23EC05F0C50E396E10E1
:1017C90050060DF350020F4EEC05F023EC05F0C660
:1017D9000E396E1050060DF350030F4EEC05F02331
:1017E900EC05F0C70E396E200E23EC05F0C80E3952
:1017F9006E1050060DF350040F4EEC05F023EC0566
:10180900F0C90E396E1050060DF350050F4EEC0558
:10181900F023EC05F0120028500A0DF3502924F0AA
:101829000F276E2B500A0DF3502C24F00F266E094A
:10183900BA21EF0CF023EF0CF029EF0CF0000E3B6E
:101849006E410E3A6E2DEF0CF0000E3B6E500E3AC3
:101859006E3AC03CF0000E0D6E000E0C6ED1EF0C0E
:10186900F00C50060DF3284EEC05F0376E0C5006BF
:101879000DF3504EEC05F00A0DF3503724F00F3DEF
:101889006E0C50060DF350030F4EEC05F0376E0C3D
:1018990050060DF350020F4EEC05F00A0DF35037C8
:1018A90024F00F3E6E0C50060DF350040F4EEC055C
:1018B900F03F6E3C503F5CD8B065EF0CF067EF0C21
:1018C900F069EF0CF0CFEF0CF03F503C5CD8B070F2
:1018D900EF0CF072EF0CF074EF0CF0E0EF0CF03D50
:1018E900C031F0326A000E346E0C0E336EE5EC072F
:1018F900F031C037F032C038F027C031F0326A0019
:101909000E346E0C0E336EE5EC07F03150375C384F
:1019190050800A396E3250800A3958D8B097EF0C86
:10192900F099EF0CF09BEF0CF0CFEF0CF027C031E2
:10193900F0326A000E346E0C0E336EE5EC07F031AE
:10194900C037F032C038F03DC031F0326A000E3491
:101959006E0C0E336EE5EC07F03150375C38508071
:101969000A396E3250800A3958D8B0BEEF0CF0C02F
:10197900EF0CF0C2EF0CF0E0EF0CF026503E5CD813
:10198900B0C9EF0CF0CBEF0CF0CDEF0CF0CFEF0CB2
:10199900F0E0EF0CF00C4A0D2A0E500C5C0D508053
:1019A9000A376E0F50800A3758D8A0DEEF0CF0E0E6
:1019B900EF0CF035EF0CF012000EEC05F0586A0050
:1019C9000E5A6E000E596E53EC07F0010E15EC0716
:1019D900F05B6E5E04D8A4F4EF0CF0F6EF0CF08423
:1019E900EF0EF058500B18D8B4FDEF0CF0FFEF0CC8
:1019F900F025EF0DF00BC058F0594A5A2A070E5935
:101A0900185A10D8A40BEF0DF00DEF0DF016EF0DCD
:101A1900F0000E5A6E000E596E000E316E010E78EE
:101A2900EC05F0050E59185A10D8A41EEF0DF02038
:101A3900EF0DF025EF0DF0000E316E010E78EC057B
:101A4900F05ABE33EF0DF05A5007E1050E595CD834
:101A5900B031EF0DF033EF0DF03DEF0DF0D9EC059E
:101A6900F0A2EC06F03EEC05F010EC0CF039EF0EAC
:101A7900F00E500F10D8A444EF0DF046EF0DF05CB6
:101A8900EF0DF0000E0D6E000E0C6ED10E336E2FA1
:101A99000E346EC00E356E6CEC06F0EA0E336E2F06
:101AA9000E346E800E356E6CEC06F00AEF0EF00CFB
:101AB900C031F00DC032F00EC033F00FC034F0E584
:101AC900EC07F031C00CF032C00DF028500A0DF3CC
:101AD900502924F00F276E2B500A0DF3502C24F0B7
:101AE9000F266E09BA7BEF0DF07DEF0DF083EF0D38
:101AF900F0000E556E410E546E87EF0DF0000E5535
:101B09006E500E546E54C025F00C50060DF3284E3D
:101B1900EC05F0536E0C50060DF3504EEC05F00A2F
:101B29000DF3505324F00F246E0C50060DF350039F
:101B39000F4EEC05F0536E0C50060DF350020F4E8C
:101B4900EC05F00A0DF3505324F00F236E0C5006E8
:101B59000DF350040F4EEC05F0226EE40E336E2F98
:101B69000E346EC00E356E6CEC06F0C60E396E245E
:101B7900C031F0326A000E346E0A0E336E3CEC0846
:101B8900F03150300F23EC05F0C70E396E24C03107
:101B9900F0326A000E346E0A0E336EE5EC07F0314E
:101BA90050300F23EC05F0C80E396E3A0E23EC05C0
:101BB900F0C90E396E23C031F0326A000E346E0A54
:101BC9000E336E3CEC08F03150300F23EC05F0CAAF
:101BD9000E396E23C031F0326A000E346E0A0E33AC
:101BE9006EE5EC07F03150300F23EC05F0CB0E39E0
:101BF9006E200E23EC05F0CC0E396E225023EC0535
:101C0900F0CD0E396E4D0E23EC05F0EA0E336E2F32
:101C19000E346E800E356E6CEC06F0280E336E3481
:101C29006A850E356E6CEC06F009AC1EEF0EF020DD
:101C3900EF0EF039EF0EF009BA25EF0EF027EF0E8F
:101C4900F02DEF0EF0F40E566E2F0E576E31EF0E8B
:101C5900F0F70E566E2F0E576E56C033F057C0343C
:101C6900F08D0E356E6CEC06F024502718D8A44080
:101C7900EF0EF042EF0EF059EF0EF023502618D870
:101C8900A449EF0EF04BEF0EF059EF0EF02250255C
:101C990018D8A452EF0EF054EF0EF059EF0EF08160
:101CA90080010E216E73EF0EF02104D8A45FEF0EB0
:101CB900F061EF0EF072EF0EF0010E0C24316E00A0
:101CC9000E0D20326E0EC033F00FC034F0E5EC0774
:101CD900F031C00CF032C00DF0216A8190040E5B26
:101CE90018D8A47AEF0EF07CEF0EF0E8EF0CF05E56
:101CF9006A000E316E010E78EC05F0E8EF0CF05E2B
:101D090050D8A48AEF0EF08CEF0EF091EF0EF05B35
:101D19005085EC09F0E8EF0CF0020E5E18D8A49893
:101D2900EF0EF09AEF0EF09FEF0EF05B50B1EC0A58
:101D3900F0E8EF0CF0030E5E18D8A4A6EF0EF0A899
:101D4900EF0EF0ADEF0EF05B501BEC0AF0E8EF0C74
:101D5900F0040E5E18D8A4B4EF0EF0B6EF0EF0BB87
:101D6900EF0EF05B5055EC14F0E8EF0CF0050E5E49
:101D790018D8A4C2EF0EF0C4EF0EF0C9EF0EF05B55
:101D89005090EC11F0E8EF0CF0070E5E18D8A4D0D3
:101D9900EF0EF0D2EF0EF0D7EF0EF05B5047EC0BE1
:101DA900F0E8EF0CF0060E5E18D8A4DEEF0EF0E0B6
:101DB900EF0EF0E5EF0EF05B50E9EC0EF0E8EF0CFA
:101DC900F0E8EF0CF0FEEF17F0506EBA0E336E2FFD
:101DD9000E346E800E356E6CEC06F01650D8A4F8F1
:101DE900EF0EF0FAEF0EF01EEF0FF02850D00F278C
:101DF9006E27500A0DF3502924D00F276E2B50D08F
:101E09000F266E26500A0DF3502C24D00F266E0291
:101E19000E63EC05F04A6E4AAA15EF0FF017EF0FA3
:101E2900F01BEF0FF0010E146E1CEF0FF0146A0196
:101E39000E166E5004D8A424EF0FF026EF0FF05FB2
:101E4900EF0FF01550D8A42CEF0FF02EEF0FF0394B
:101E5900EF0FF0272A0C0E276435EF0FF037EF0F3D
:101E6900F039EF0FF0010E276E1504D8A43FEF0FDC
:101E7900F041EF0FF04BEF0FF0262A3B0E26644896
:101E8900EF0FF04AEF0FF04BEF0FF0266A020E1535
:101E990018D8A452EF0FF054EF0FF05FEF0FF014C2
:101EA90050D8B45AEF0FF05DEF0FF0010E5EEF0F4F
:101EB900F0000E146E020E5018D8A466EF0FF068E9
:101EC900EF0FF072EF0FF0152A020E15646FEF0F86
:101ED900F071EF0FF072EF0FF0156A01C046F002D2
:101EE900C047F003C048F004C049F0012A000E02BF
:101EF90022032204224950481009E1F40E465C01EC
:101F09000E4758D8B08BEF0FF08DEF0FF0E1EF0FC0
:101F1900F0C00E396E200E23EC05F0C10E396E2784
:101F2900C031F0326A000E346E0A0E336E3CEC0892
:101F3900F03150300F23EC05F0C20E396E27C03155
:101F4900F0326A000E346E0A0E336EE5EC07F0319A
:101F590050300F23EC05F0C30E396E3A0E23EC0511
:101F6900F0C40E396E26C031F0326A000E346E0AA2
:101F79000E336E3CEC08F03150300F23EC05F0C500
:101F89000E396E26C031F0326A000E346E0A0E33F5
:101F99006EE5EC07F03150300F23EC05F0145003D7
:101FA9000DF350C00F466E46C033F0346AC70E3584
:101FB9006E6CEC06F01EEF10F01550D8A4E7EF0F89
:101FC900F0E9EF0FF0F5EF0FF0C10E396E200E2397
:101FD900EC05F0C20E396E200E23EC05F01EEF1051
:101FE900F01504D8A4FBEF0FF0FDEF0FF009EF1087
:101FF900F0C40E396E200E23EC05F0C50E396E20A3
:102009000E23EC05F01EEF10F0020E1518D8A410DF
:10201900EF10F012EF10F01EEF10F0C70E396E201E
:102029000E23EC05F0C80E396E200E23EC05F01EC8
:10203900EF10F0045003100BE1E80E015C030E02EF
:1020490058D8A02AEF10F02CEF10F034EF10F00060
:102059000E016E000E026E000E036E000E046E0479
:102069000E5018D8A43BEF10F03DEF10F07DEF11A2
:10207900F00E500F10D8A444EF10F046EF10F055B1
:10208900EF10F026C039F0C00E3A6E0EC03BF00FCB
:10209900C03CF027509DEC08F00E4A0F2A7DEF1145
:1020A900F0000E4F6E000E4E6E000E526E000E5175
:1020B9006E4FEF11F05150060DF3284EEC05F04626
:1020C9006E5150060DF3504EEC05F00A0DF35046D3
:1020D90024F00F4B6E5150060DF350030F4EEC05D3
:1020E900F0466E5150060DF350020F4EEC05F00A02
:1020F9000DF3504624F00F4C6E5150060DF3500469
:102109000F4EEC05F04D6E1450030DF350C00FD96E
:102119006EDA6ADE504D5CD8B095EF10F097EF108B
:10212900F099EF10F04DEF11F01450030DF350C07A
:102139000FD96EDA6A4D50DE5CD8B0A6EF10F0A860
:10214900EF10F0C1EF10F051C036F052C037F0D89F
:10215900EC06F026C039F0C00E3A6E51C03BF05281
:10216900C03CF027509DEC08F00E4A0F2A000E4F94
:102179006E010E4E6E4DEF11F04BC031F0326A0018
:102189000E346E0C0E336EE5EC07F031C046F032BA
:10219900C047F027C031F0326A000E346E0C0E339E
:1021A9006EE5EC07F03150465C4750800A486E32C4
:1021B90050800A4858D8B0E4EF10F0E6EF10F0E884
:1021C900EF10F04DEF11F027C031F0326A000E34F4
:1021D9006E0C0E336EE5EC07F031C046F032C047A5
:1021E900F04BC031F0326A000E346E0C0E336EE5DE
:1021F900EC07F03150465C4750800A486E325080F7
:102209000A4858D8B00BEF11F00DEF11F020EF117B
:10221900F051C036F052C037F0D8EC06F026C0397C
:10222900F0C00E3A6E51C03BF052C03CF027509DB1
:10223900EC08F0B9EF10F026504C5CD8B027EF113C
:10224900F029EF11F02BEF11F04DEF11F04C502662
:102259005CD8B032EF11F034EF11F047EF11F051C3
:10226900C036F052C037F0D8EC06F026C039F0C0BD
:102279000E3A6E51C03BF052C03CF027509DEC081D
:10228900F0B9EF10F0000E4F6E010E4E6E67EF11B0
:10229900F0514A522A0E50515C5250800A466E0F34
:1022A90050800A4658D8B05CEF11F05EEF11F06724
:1022B900EF11F04E504F10D8B465EF11F067EF11E0
:1022C900F05FEF10F04E504F10D8A46EEF11F07080
:1022D900EF11F07DEF11F026C039F0C00E3A6E51C2
:1022E900C03BF052C03CF027509DEC08F051EF1074
:1022F900F0050E5018D8A484EF11F086EF11F08F75
:10230900EF11F0000E316E010E78EC05F0146A162B
:102319006A010E5E6E12003F6E1650D8A497EF1137
:10232900F099EF11F0B7EF11F00001C851D00F1B70
:102339006E1B500A0DF350C925D00F1B6ECB51D01F
:102349000F1C6E1C500A0DF350CC25D00F1C6ECEFD
:1023590051D00F1D6E1D500A0DF350CF25D00F1D02
:102369006E010E166E3F04D8A4BDEF11F0BFEF1138
:10237900F0FEEF11F01550D8A4C5EF11F0C7EF1119
:10238900F0D4EF11F01D2A1F0E1D64CEEF11F0D00D
:10239900EF11F0FEEF11F0010E1D6EFEEF11F015B9
:1023A90004D8A4DAEF11F0DCEF11F0E9EF11F01C19
:1023B9002A0C0E1C64E3EF11F0E5EF11F0FEEF11AA
:1023C900F0010E1C6EFEEF11F0020E1518D8A4F0E4
:1023D900EF11F0F2EF11F0FEEF11F01B2A630E1B63
:1023E90064F9EF11F0FBEF11F0FEEF11F01B6AFE3B
:1023F900EF11F0020E3F18D8A405EF12F007EF1203
:10240900F012EF12F0152A030E1518D8A40FEF12C7
:10241900F011EF12F012EF12F0156A040E3F18D8FE
:10242900A419EF12F01BEF12F082EF12F01DC03168
:10243900F0326A000E346E0A0E336EE5EC07F031A5
:10244900C03BF032C03CF01DC031F0326A000E349E
:102459006E0A0E336E3CEC08F03138F00B3B101D60
:102469006E1DC032F0040E2FEC05F01CC031F032A5
:102479006A000E346E0A0E336EE5EC07F031C03B8C
:10248900F032C03CF01CC031F0326A000E346E0AE2
:102499000E336E3CEC08F03138F00B3B101C6E1C0F
:1024A900C032F0050E2FEC05F01BC031F0326A0086
:1024B9000E346E0A0E336EE5EC07F031C03BF03294
:1024C900C03CF01BC031F0326A000E346E0A0E3384
:1024D9006E3CEC08F03138F00B3B101B6E1BC03220
:1024E900F0060E2FEC05F0000E316E010E78EC05AA
:1024F900F0010E5E6E166A54EF14F0050E3F18D8FF
:10250900A489EF12F08BEF12F092EF12F0000E3166
:102519006E010E78EC05F07DEF12F0C60E336E2FCA
:102529000E346E800E356E6CEC06F001C03BF00285
:10253900C03CF003C03DF004C03EF0012A000E0289
:1025490022032204223E503D1009E1F40E3B5C01B6
:102559000E3C58D8B0B3EF12F0B5EF12F020EF13DC
:10256900F0C00E396E200E23EC05F0C10E396E1D38
:10257900C031F0326A000E346E0A0E336E3CEC083C
:10258900F03150300F23EC05F0C20E396E1DC03109
:10259900F0326A000E346E0A0E336EE5EC07F03144
:1025A90050300F23EC05F0C30E396E2D0E23EC05C8
:1025B900F0C40E396E1CC031F0326A000E346E0A56
:1025C9000E336E3CEC08F03150300F23EC05F0C5AA
:1025D9000E396E1CC031F0326A000E346E0A0E33A9
:1025E9006EE5EC07F03150300F23EC05F0C60E39DB
:1025F9006E2D0E23EC05F0C70E396E1BC031F0327B
:102609006A000E346E0A0E336E3CEC08F03150301D
:102619000F23EC05F0C80E396E1BC031F0326A0089
:102629000E346E0A0E336EE5EC07F03150300F238D
:10263900EC05F03EEF14F01550D8A426EF13F0285E
:10264900EF13F07FEF13F0C00E396E200E23EC0567
:10265900F0C10E396E200E23EC05F0C20E396E2042
:102669000E23EC05F0C30E396E2D0E23EC05F0C4D4
:102679000E396E1CC031F0326A000E346E0A0E3308
:102689006E3CEC08F03150300F23EC05F0C50E39E3
:102699006E1CC031F0326A000E346E0A0E336EE5DC
:1026A900EC07F03150300F23EC05F0C60E396E2DD2
:1026B9000E23EC05F0C70E396E1BC031F0326A00EB
:1026C9000E346E0A0E336E3CEC08F03150300F2395
:1026D900EC05F0C80E396E1BC031F0326A000E34B9
:1026E9006E0A0E336EE5EC07F03150300F23EC051E
:1026F900F03EEF14F01504D8A485EF13F087EF131B
:10270900F0DEEF13F0C00E396E200E23EC05F0C198
:102719000E396E1DC031F0326A000E346E0A0E3366
:102729006E3CEC08F03150300F23EC05F0C20E3945
:102739006E1DC031F0326A000E346E0A0E336EE53A
:10274900EC07F03150300F23EC05F0C30E396E2D34
:102759000E23EC05F0C40E396E200E23EC05F0C5EE
:102769000E396E200E23EC05F0C60E396E2D0E23A0
:10277900EC05F0C70E396E1BC031F0326A000E3419
:102789006E0A0E336E3CEC08F03150300F23EC0525
:10279900F0C80E396E1BC031F0326A000E346E0A71
:1027A9000E336EE5EC07F03150300F23EC05F03EA7
:1027B900EF14F0020E1518D8A4E5EF13F0E7EF13A4
:1027C900F03EEF14F0C00E396E200E23EC05F0C177
:1027D9000E396E1DC031F0326A000E346E0A0E33A6
:1027E9006E3CEC08F03150300F23EC05F0C20E3985
:1027F9006E1DC031F0326A000E346E0A0E336EE57A
:10280900EC07F03150300F23EC05F0C30E396E2D73
:102819000E23EC05F0C40E396E1CC031F0326A008B
:102829000E346E0A0E336E3CEC08F03150300F2333
:10283900EC05F0C50E396E1CC031F0326A000E3459
:102849006E0A0E336EE5EC07F03150300F23EC05BC
:10285900F0C60E396E2D0E23EC05F0C70E396E2029
:102869000E23EC05F0C80E396E200E23EC05F03E60
:10287900EF14F0E80E011809E1030E021803100421
:1028890010D8A44AEF14F04CEF14F054EF14F000F0
:102899000E016E000E026E000E036E000E046E1223
:1028A90000406E1650D8A45CEF14F05EEF14F08867
:1028B900EF14F02850D00F276E27500A0DF3502936
:1028C90024D00F276E2B50D00F266E26500A0DF3F9
:1028D900502C24D00F266E2E50D00F1E6E1E500A7B
:1028E9000DF3502F24D00F1E6E020E63EC05F03F3E
:1028F9006E3FAA82EF14F084EF14F086EF14F00112
:102909000E146E010E166E4004D8A48EEF14F090CA
:10291900EF14F0DCEF14F01550D8A496EF14F098EA
:10292900EF14F0A3EF14F0272A0C0E27649FEF147D
:10293900F0A1EF14F0A3EF14F0010E276E1504D8DF
:10294900A4A9EF14F0ABEF14F0B5EF14F0262A3B6D
:102959000E2664B2EF14F0B4EF14F0B5EF14F026BC
:102969006A020E1518D8A4BCEF14F0BEEF14F0C813
:10297900EF14F01E2A3B0E1E64C5EF14F0C7EF14C6
:10298900F0C8EF14F01E6A030E1518D8A4CFEF147F
:10299900F0D1EF14F0DCEF14F01450D8B4D7EF14E1
:1029A900F0DAEF14F0010EDBEF14F0000E146E02F2
:1029B9000E4018D8A4E3EF14F0E5EF14F0F0EF148B
:1029C900F0152A040E1518D8A4EDEF14F0EFEF1442
:1029D900F0F0EF14F0156A040E4018D8A4F7EF14BC
:1029E900F0F9EF14F06BEF15F014C03BF0050E3C55
:1029F9006ED8903B363C2EFDEF14F027C031F032F3
:102A09006A000E346E0A0E336EE5EC07F031C03DF4
:102A1900F032C03EF027C031F0326A000E346E0A3F
:102A29000E336E3CEC08F03138F00B3D103B104092
:102A390009276E27C032F0020E2FEC05F026C031AF
:102A4900F0326A000E346E0A0E336EE5EC07F0318F
:102A5900C03BF032C03CF026C031F0326A000E347F
:102A69006E0A0E336E3CEC08F03138F00B3B102641
:102A79006E26C032F0010E2FEC05F01EC031F03287
:102A89006A000E346E0A0E336EE5EC07F031C03B76
:102A9900F032C03CF01EC031F0326A000E346E0ACA
:102AA9000E336E3CEC08F03138F00B3B101E6E1EF5
:102AB900C032F0000E2FEC05F0000E316E010E78D9
:102AC900EC05F0010E5E6E166AC7EF17F0050E40B1
:102AD90018D8A472EF15F074EF15F07BEF15F0001C
:102AE9000E316E010E78EC05F066EF15F0A00E338D
:102AF9006E2F0E346E800E356E6CEC06F001C03B05
:102B0900F002C03CF003C03DF004C03EF0012A00D1
:102B19000E0222032204223E503D1009E1F40E3B2D
:102B29005C010E3C58D8B09CEF15F09EEF15F015DE
:102B3900EF16F0C00E396E200E23EC05F0C10E39E8
:102B49006E27C031F0326A000E346E0A0E336E3CC5
:102B5900EC08F03150300F23EC05F0C20E396E2726
:102B6900C031F0326A000E346E0A0E336EE5EC079E
:102B7900F03150300F23EC05F0C30E396E3A0E23B5
:102B8900EC05F0C40E396E26C031F0326A000E34FD
:102B99006E0A0E336E3CEC08F03150300F23EC0511
:102BA900F0C50E396E26C031F0326A000E346E0A55
:102BB9000E336EE5EC07F03150300F23EC05F0C60B
:102BC9000E396E3A0E23EC05F0C70E396E1EC03170
:102BD900F0326A000E346E0A0E336E3CEC08F031A6
:102BE90050300F23EC05F0C80E396E1EC031F0329B
:102BF9006A000E346E0A0E336EE5EC07F031503080
:102C09000F23EC05F01450030DF350C00F3B6E3B3E
:102C1900C033F0346ACA0E356E6CEC06F0B1EF17AA
:102C2900F01550D8A41BEF16F01DEF16F074EF162F
:102C3900F0C00E396E200E23EC05F0C10E396E205E
:102C49000E23EC05F0C20E396E200E23EC05F0C3FD
:102C59000E396E3A0E23EC05F0C40E396E26C031DA
:102C6900F0326A000E346E0A0E336E3CEC08F03115
:102C790050300F23EC05F0C50E396E26C031F03205
:102C89006A000E346E0A0E336EE5EC07F0315030EF
:102C99000F23EC05F0C60E396E3A0E23EC05F0C78A
:102CA9000E396E1EC031F0326A000E346E0A0E33D0
:102CB9006E3CEC08F03150300F23EC05F0C80E39AA
:102CC9006E1EC031F0326A000E346E0A0E336EE5A4
:102CD900EC07F03150300F23EC05F007EF16F01533
:102CE90004D8A47AEF16F07CEF16F0D3EF16F0C0F3
:102CF9000E396E200E23EC05F0C10E396E27C03156
:102D0900F0326A000E346E0A0E336E3CEC08F03174
:102D190050300F23EC05F0C20E396E27C031F03266
:102D29006A000E346E0A0E336EE5EC07F03150304E
:102D39000F23EC05F0C30E396E3A0E23EC05F0C4EF
:102D49000E396E200E23EC05F0C50E396E200E23C8
:102D5900EC05F0C60E396E3A0E23EC05F0C70E39B4
:102D69006E1EC031F0326A000E346E0A0E336E3CAC
:102D7900EC08F03150300F23EC05F0C80E396E1E07
:102D8900C031F0326A000E346E0A0E336EE5EC077C
:102D9900F03150300F23EC05F007EF16F0020E1555
:102DA90018D8A4DAEF16F0DCEF16F033EF17F0C0FD
:102DB9000E396E200E23EC05F0C10E396E27C03195
:102DC900F0326A000E346E0A0E336E3CEC08F031B4
:102DD90050300F23EC05F0C20E396E27C031F032A6
:102DE9006A000E346E0A0E336EE5EC07F03150308E
:102DF9000F23EC05F0C30E396E3A0E23EC05F0C42F
:102E09000E396E26C031F0326A000E346E0A0E3366
:102E19006E3CEC08F03150300F23EC05F0C50E394B
:102E29006E26C031F0326A000E346E0A0E336EE53A
:102E3900EC07F03150300F23EC05F0C60E396E3A2D
:102E49000E23EC05F0C70E396E200E23EC05F0C8F1
:102E59000E396E200E23EC05F007EF16F0030E1560
:102E690018D8A43AEF17F03CEF17F0B1EF17F0C0FC
:102E79000E396E200E23EC05F0C10E396E27C031D4
:102E8900F0326A000E346E0A0E336E3CEC08F031F3
:102E990050300F23EC05F0C20E396E27C031F032E5
:102EA9006A000E346E0A0E336EE5EC07F0315030CD
:102EB9000F23EC05F0C30E396E3A0E23EC05F0C46E
:102EC9000E396E26C031F0326A000E346E0A0E33A6
:102ED9006E3CEC08F03150300F23EC05F0C50E398B
:102EE9006E26C031F0326A000E346E0A0E336EE57A
:102EF900EC07F03150300F23EC05F0C60E396E3A6D
:102F09000E23EC05F0C70E396E1EC031F0326A008F
:102F19000E346E0A0E336E3CEC08F03150300F233C
:102F2900EC05F0C80E396E1EC031F0326A000E345D
:102F39006E0A0E336EE5EC07F03150300F23EC05C5
:102F4900F0CA0E396E200E23EC05F0CB0E396E2037
:102F59000E23EC05F0B1EF17F0E80E011809E103B3
:102F69000E021803100410D8A4BDEF17F0BFEF1715
:102F7900F0C7EF17F0000E016E000E026E000E038F
:102F89006E000E046E120000202048483A4D4D2074
:102F9900414D2F504D20002048483A4D4D3A53534A
:102FA90020412F5000204E4F204556454E54532066
:102FB900002048483A4D4D20412F502000204444DC
:102FC9002D4D4D2D595920004E6F204576656E7453
:102FD90073002053544F5245442000416C61726D77
:102FE9000054696D65004461746500414D00504DA0
:022FF9000000D6
:042FFC0009EF06F0E3
:020000040020DA
:08000000FFFFFFFFFFFFFFFF00
:020000040030CA
:0E000000FF071F1FFF8285FF0FC00FE00F409C
:00000001FF
